{
  "transactions": [
    {
      "hash": "0x75603fda5e15d92d7ab0363fbab43e3897b5ac460a9f2a29b73a69ccd130a13d",
      "transactionType": "CALL",
      "contractName": null,
      "contractAddress": "0x4ac1d98d9cef99ec6546ded4bd550b0b287aad6d",
      "function": "approve(address,uint256)",
      "arguments": [
        "0xA4cD3b0Eb6E5Ab5d8CE4065BcCD70040ADAB1F00",
        "1000000000000000000"
      ],
      "transaction": {
        "from": "0x8db97c7cece249c2b98bdc0226cc4c2a57bf52fc",
        "to": "0x4ac1d98d9cef99ec6546ded4bd550b0b287aad6d",
        "gas": "0xfa09",
        "value": "0x0",
        "input": "0x095ea7b3000000000000000000000000a4cd3b0eb6e5ab5d8ce4065bccd70040adab1f000000000000000000000000000000000000000000000000000de0b6b3a7640000",
        "nonce": "0x8",
        "chainId": "0x1869f"
      },
      "additionalContracts": [],
      "isFixedGasLimit": false
    },
    {
      "hash": "0x451e50b75173106a094a5bcf104a399f05d6225550c57c50c2ec4ba80b36e310",
      "transactionType": "CALL",
      "contractName": null,
      "contractAddress": "0x4ac1d98d9cef99ec6546ded4bd550b0b287aad6d",
      "function": "transfer(address,uint256)",
      "arguments": [
        "0xA4cD3b0Eb6E5Ab5d8CE4065BcCD70040ADAB1F00",
        "1000000000000000000"
      ],
      "transaction": {
        "from": "0x8db97c7cece249c2b98bdc0226cc4c2a57bf52fc",
        "to": "0x4ac1d98d9cef99ec6546ded4bd550b0b287aad6d",
        "gas": "0x126d8",
        "value": "0x0",
        "input": "0xa9059cbb000000000000000000000000a4cd3b0eb6e5ab5d8ce4065bccd70040adab1f000000000000000000000000000000000000000000000000000de0b6b3a7640000",
        "nonce": "0x9",
        "chainId": "0x1869f"
      },
      "additionalContracts": [],
      "isFixedGasLimit": false
    }
  ],
  "receipts": [
    {
      "status": "0x1",
      "cumulativeGasUsed": "0xb506",
      "logs": [
        {
          "address": "0x4ac1d98d9cef99ec6546ded4bd550b0b287aad6d",
          "topics": [
            "0x8c5be1e5ebec7d5bd14f71427d1e84f3dd0314c0f7b2291e5b200ac8c7c3b925",
            "0x0000000000000000000000008db97c7cece249c2b98bdc0226cc4c2a57bf52fc",
            "0x000000000000000000000000a4cd3b0eb6e5ab5d8ce4065bccd70040adab1f00"
          ],
          "data": "0x0000000000000000000000000000000000000000000000000de0b6b3a7640000",
          "blockHash": "0x3d7f4a9c36a0ab05313e87a5d77eb8013add7baa4ee0b10057b7101bb5fa1127",
          "blockNumber": "0xb",
          "transactionHash": "0x75603fda5e15d92d7ab0363fbab43e3897b5ac460a9f2a29b73a69ccd130a13d",
          "transactionIndex": "0x0",
          "logIndex": "0x0",
          "removed": false
        }
      ],
      "logsBloom": "0x00001000000000000000000040000000000000000000000000000000000000000000000000000000000000000000000000000000000000000000000000200000000000000000000000000000000000000000000000000000000000000000000000000000000000000000000000000000000000000000000000000000000020000000000000000000000000000000000000000000000000000000000000000000020000000000000000000010000000000000000000000000000000100000000000000000000000000000000000000000000002000000800000000000000000000010000000000000000000000000000000000001000000000080000000000000",
      "type": "0x2",
      "transactionHash": "0x75603fda5e15d92d7ab0363fbab43e3897b5ac460a9f2a29b73a69ccd130a13d",
      "transactionIndex": "0x0",
      "blockHash": "0x3d7f4a9c36a0ab05313e87a5d77eb8013add7baa4ee0b10057b7101bb5fa1127",
      "blockNumber": "0xb",
      "gasUsed": "0xb506",
      "effectiveGasPrice": "0x5d21dba01",
      "from": "0x8db97c7cece249c2b98bdc0226cc4c2a57bf52fc",
      "to": "0x4ac1d98d9cef99ec6546ded4bd550b0b287aad6d",
      "contractAddress": null
    },
    {
      "status": "0x1",
      "cumulativeGasUsed": "0x17ea1",
      "logs": [
        {
          "address": "0x4ac1d98d9cef99ec6546ded4bd550b0b287aad6d",
          "topics": [
            "0xddf252ad1be2c89b69c2b068fc378daa952ba7f163c4a11628f55a4df523b3ef",
            "0x0000000000000000000000008db97c7cece249c2b98bdc0226cc4c2a57bf52fc",
            "0x000000000000000000000000a4cd3b0eb6e5ab5d8ce4065bccd70040adab1f00"
          ],
          "data": "0x0000000000000000000000000000000000000000000000000de0b6b3a7640000",
          "blockHash": "0x3d7f4a9c36a0ab05313e87a5d77eb8013add7baa4ee0b10057b7101bb5fa1127",
          "blockNumber": "0xb",
          "transactionHash": "0x451e50b75173106a094a5bcf104a399f05d6225550c57c50c2ec4ba80b36e310",
          "transactionIndex": "0x1",
          "logIndex": "0x1",
          "removed": false
        }
      ],
      "logsBloom": "0x00001000000000000000000040000000000000000000000000000000000000000000000000000000000000000000000000000000000000000000000000000000000000000000000000000008000000000000000000000000000000000000000000000000000000000000000000000000000000000000000000000010000020000000000000000000000000000000000000000000000000000000000000000000000000000000000000000010000000000000000000000000000000100000000000000002000000000000000000000000000002000000800000000000000000000000000000000000000000000000000000000001000000000080000000000000",
      "type": "0x2",
      "transactionHash": "0x451e50b75173106a094a5bcf104a399f05d6225550c57c50c2ec4ba80b36e310",
      "transactionIndex": "0x1",
      "blockHash": "0x3d7f4a9c36a0ab05313e87a5d77eb8013add7baa4ee0b10057b7101bb5fa1127",
      "blockNumber": "0xb",
      "gasUsed": "0xc99b",
      "effectiveGasPrice": "0x5d21dba01",
      "from": "0x8db97c7cece249c2b98bdc0226cc4c2a57bf52fc",
      "to": "0x4ac1d98d9cef99ec6546ded4bd550b0b287aad6d",
      "contractAddress": null
    }
  ],
  "libraries": [],
  "pending": [],
  "returns": {},
  "timestamp": 1755213792,
  "chain": 99999,
  "commit": "faf6542"
}