{
  "transactions": [
    {
      "hash": "0xfbfa90822cb38d316f4c9808731ec521b71967b20e1d86255415919787a96be2",
      "transactionType": "CALL",
      "contractName": null,
      "contractAddress": "0x4ac1d98d9cef99ec6546ded4bd550b0b287aad6d",
      "function": "approve(address,uint256)",
      "arguments": [
        "0xE3573540ab8A1C4c754Fd958Dc1db39BBE81b208",
        "1000000000000000000"
      ],
      "transaction": {
        "from": "0x8db97c7cece249c2b98bdc0226cc4c2a57bf52fc",
        "to": "0x4ac1d98d9cef99ec6546ded4bd550b0b287aad6d",
        "gas": "0xfa29",
        "value": "0x0",
        "input": "0x095ea7b3000000000000000000000000e3573540ab8a1c4c754fd958dc1db39bbe81b2080000000000000000000000000000000000000000000000000de0b6b3a7640000",
        "nonce": "0xc",
        "chainId": "0x1869f"
      },
      "additionalContracts": [],
      "isFixedGasLimit": false
    },
    {
      "hash": "0x384681cad65222f765697614afed28c0f4edbf84ff035f7560c582e3576eb70d",
      "transactionType": "CALL",
      "contractName": null,
      "contractAddress": "0x4ac1d98d9cef99ec6546ded4bd550b0b287aad6d",
      "function": "transfer(address,uint256)",
      "arguments": [
        "0xE3573540ab8A1C4c754Fd958Dc1db39BBE81b208",
        "1000000000000000000"
      ],
      "transaction": {
        "from": "0x8db97c7cece249c2b98bdc0226cc4c2a57bf52fc",
        "to": "0x4ac1d98d9cef99ec6546ded4bd550b0b287aad6d",
        "gas": "0x126fb",
        "value": "0x0",
        "input": "0xa9059cbb000000000000000000000000e3573540ab8a1c4c754fd958dc1db39bbe81b2080000000000000000000000000000000000000000000000000de0b6b3a7640000",
        "nonce": "0xd",
        "chainId": "0x1869f"
      },
      "additionalContracts": [],
      "isFixedGasLimit": false
    }
  ],
  "receipts": [
    {
      "status": "0x1",
      "cumulativeGasUsed": "0xb51e",
      "logs": [
        {
          "address": "0x4ac1d98d9cef99ec6546ded4bd550b0b287aad6d",
          "topics": [
            "0x8c5be1e5ebec7d5bd14f71427d1e84f3dd0314c0f7b2291e5b200ac8c7c3b925",
            "0x0000000000000000000000008db97c7cece249c2b98bdc0226cc4c2a57bf52fc",
            "0x000000000000000000000000e3573540ab8a1c4c754fd958dc1db39bbe81b208"
          ],
          "data": "0x0000000000000000000000000000000000000000000000000de0b6b3a7640000",
          "blockHash": "0xda10ce956d9f7706858a86849d8a18a2130dcea5f1e4c362089258bc41307eb1",
          "blockNumber": "0xe",
          "transactionHash": "0xfbfa90822cb38d316f4c9808731ec521b71967b20e1d86255415919787a96be2",
          "transactionIndex": "0x0",
          "logIndex": "0x0",
          "removed": false
        }
      ],
      "logsBloom": "0x000000000000000000000000000000000000000000000000000000000000000000000000000000000400000000000000000000000000000000000000002000000000000000000000000000000000000000000000000000000000000000000000000000000000000000000000000000000000000000000000000000000000200000004000000000000000000000000000000000000000000000000000000000000200000000000000000000100000000000000000000000000000001000000000000000000000000000000000000000000000000000008000000000000000000000100000000000000000000000000000000000010000000000a0000000000000",
      "type": "0x2",
      "transactionHash": "0xfbfa90822cb38d316f4c9808731ec521b71967b20e1d86255415919787a96be2",
      "transactionIndex": "0x0",
      "blockHash": "0xda10ce956d9f7706858a86849d8a18a2130dcea5f1e4c362089258bc41307eb1",
      "blockNumber": "0xe",
      "gasUsed": "0xb51e",
      "effectiveGasPrice": "0x5d21dba01",
      "from": "0x8db97c7cece249c2b98bdc0226cc4c2a57bf52fc",
      "to": "0x4ac1d98d9cef99ec6546ded4bd550b0b287aad6d",
      "contractAddress": null
    },
    {
      "status": "0x1",
      "cumulativeGasUsed": "0x17ed1",
      "logs": [
        {
          "address": "0x4ac1d98d9cef99ec6546ded4bd550b0b287aad6d",
          "topics": [
            "0xddf252ad1be2c89b69c2b068fc378daa952ba7f163c4a11628f55a4df523b3ef",
            "0x0000000000000000000000008db97c7cece249c2b98bdc0226cc4c2a57bf52fc",
            "0x000000000000000000000000e3573540ab8a1c4c754fd958dc1db39bbe81b208"
          ],
          "data": "0x0000000000000000000000000000000000000000000000000de0b6b3a7640000",
          "blockHash": "0xda10ce956d9f7706858a86849d8a18a2130dcea5f1e4c362089258bc41307eb1",
          "blockNumber": "0xe",
          "transactionHash": "0x384681cad65222f765697614afed28c0f4edbf84ff035f7560c582e3576eb70d",
          "transactionIndex": "0x1",
          "logIndex": "0x1",
          "removed": false
        }
      ],
      "logsBloom": "0x000000000000000000000000000000000000000000000000000000000000000000000000000000000400000000000000000000000000000000000000000000000000000000000000000000080000000000000000000000000000000000000000000000000000000000000000000000000000000000000000000000100000200000004000000000000000000000000000000000000000000000000000000000000000000000000000000000100000000000000000000000000000001000000000000000020000000000000000000000000000000000008000000000000000000000000000000000000000000000000000000000010000000000a0000000000000",
      "type": "0x2",
      "transactionHash": "0x384681cad65222f765697614afed28c0f4edbf84ff035f7560c582e3576eb70d",
      "transactionIndex": "0x1",
      "blockHash": "0xda10ce956d9f7706858a86849d8a18a2130dcea5f1e4c362089258bc41307eb1",
      "blockNumber": "0xe",
      "gasUsed": "0xc9b3",
      "effectiveGasPrice": "0x5d21dba01",
      "from": "0x8db97c7cece249c2b98bdc0226cc4c2a57bf52fc",
      "to": "0x4ac1d98d9cef99ec6546ded4bd550b0b287aad6d",
      "contractAddress": null
    }
  ],
  "libraries": [],
  "pending": [],
  "returns": {},
  "timestamp": 1755214190,
  "chain": 99999,
  "commit": "faf6542"
}