{
  "transactions": [
    {
      "hash": "0x878a5d699ffd771bd310ad1d267b6a37b261ab1eabc11dac4e083bffd9f4d7eb",
      "transactionType": "CALL",
      "contractName": null,
      "contractAddress": "0xa4dff80b4a1d748bf28bc4a271ed834689ea3407",
      "function": "setRemoteTokenAddress(bytes32,address)",
      "arguments": [
        "0x76922bee12483f57821e38c2672b86f4f6fa23fa9b4ad805daa9998e778351d5",
        "0x8B3BC4270BE2abbB25BC04717830bd1Cc493a461"
      ],
      "transaction": {
        "from": "0x8db97c7cece249c2b98bdc0226cc4c2a57bf52fc",
        "to": "0xa4dff80b4a1d748bf28bc4a271ed834689ea3407",
        "value": "0x0",
        "input": "0xcb0055dc76922bee12483f57821e38c2672b86f4f6fa23fa9b4ad805daa9998e778351d50000000000000000000000008b3bc4270be2abbb25bc04717830bd1cc493a461",
        "nonce": "0x7",
        "chainId": "0x138a"
      },
      "additionalContracts": [],
      "isFixedGasLimit": false
    }
  ],
  "receipts": [
    {
      "status": "0x1",
      "cumulativeGasUsed": "0xbc73",
      "logs": [
        {
          "address": "0xa4dff80b4a1d748bf28bc4a271ed834689ea3407",
          "topics": [
            "0x5e2ee94e5fcc8d41ae826c007ad7c0469ad36ecc49b851c1c248eef3958b35b7",
            "0x76922bee12483f57821e38c2672b86f4f6fa23fa9b4ad805daa9998e778351d5",
            "0x0000000000000000000000008b3bc4270be2abbb25bc04717830bd1cc493a461"
          ],
          "data": "0x",
          "blockHash": "0x731423ce4aa4485f390c0532f5a0fd0077005af55d03875c05c892228d577b7a",
          "blockNumber": "0xd",
          "transactionHash": "0x878a5d699ffd771bd310ad1d267b6a37b261ab1eabc11dac4e083bffd9f4d7eb",
          "transactionIndex": "0x0",
          "logIndex": "0x0",
          "removed": false
        }
      ],
      "logsBloom": "0x00000000000000000000000001000000000000000000000000000000000000000000000000000000000000000000000000000004000000000000000000000000000000000000000000008000000008000000000000000000000000000000000000000080000000000000000000080000000000000000000000000000080000000000000000000000000020000000000000000000000200000008000000000000000000000000000000000000000000000000000000000000000000000000000000000000000000000000000000000001000000000000000000000080000000000000000000000000000000000000000000000000000000000000000000000000",
      "type": "0x2",
      "transactionHash": "0x878a5d699ffd771bd310ad1d267b6a37b261ab1eabc11dac4e083bffd9f4d7eb",
      "transactionIndex": "0x0",
      "blockHash": "0x731423ce4aa4485f390c0532f5a0fd0077005af55d03875c05c892228d577b7a",
      "blockNumber": "0xd",
      "gasUsed": "0xbc73",
      "effectiveGasPrice": "0x5d21dba01",
      "from": "0x8db97c7cece249c2b98bdc0226cc4c2a57bf52fc",
      "to": "0xa4dff80b4a1d748bf28bc4a271ed834689ea3407",
      "contractAddress": null
    }
  ],
  "libraries": [],
  "pending": [],
  "returns": {},
  "timestamp": 1755581908,
  "chain": 5002,
  "commit": "faf6542"
}