{
  "transactions": [
    {
      "hash": "0x6dd73e28318efdad4b7bac51e1f1f9a456b4860bc49488cdc14d39877a043c5e",
      "transactionType": "CALL",
      "contractName": null,
      "contractAddress": "0x4ac1d98d9cef99ec6546ded4bd550b0b287aad6d",
      "function": "setRemoteTokenAddress(bytes32,address)",
      "arguments": [
        "0x76922bee12483f57821e38c2672b86f4f6fa23fa9b4ad805daa9998e778351d5",
        "0x4Ac1d98D9cEF99EC6546dEd4Bd550b0b287aaD6D"
      ],
      "transaction": {
        "from": "0x8db97c7cece249c2b98bdc0226cc4c2a57bf52fc",
        "to": "0x4ac1d98d9cef99ec6546ded4bd550b0b287aad6d",
        "gas": "0x1139a",
        "value": "0x0",
        "input": "0xcb0055dc76922bee12483f57821e38c2672b86f4f6fa23fa9b4ad805daa9998e778351d50000000000000000000000004ac1d98d9cef99ec6546ded4bd550b0b287aad6d",
        "nonce": "0x5",
        "chainId": "0x138a"
      },
      "additionalContracts": [],
      "isFixedGasLimit": false
    }
  ],
  "receipts": [
    {
      "status": "0x1",
      "cumulativeGasUsed": "0xbc73",
      "logs": [
        {
          "address": "0x4ac1d98d9cef99ec6546ded4bd550b0b287aad6d",
          "topics": [
            "0x5e2ee94e5fcc8d41ae826c007ad7c0469ad36ecc49b851c1c248eef3958b35b7",
            "0x76922bee12483f57821e38c2672b86f4f6fa23fa9b4ad805daa9998e778351d5",
            "0x0000000000000000000000004ac1d98d9cef99ec6546ded4bd550b0b287aad6d"
          ],
          "data": "0x",
          "blockHash": "0x8c25bd7a40cbb4cdf6bbdf227f5330121464e2134d4e47c6d0eec5b907ab3112",
          "blockNumber": "0xa",
          "transactionHash": "0x6dd73e28318efdad4b7bac51e1f1f9a456b4860bc49488cdc14d39877a043c5e",
          "transactionIndex": "0x0",
          "logIndex": "0x0",
          "removed": false
        }
      ],
      "logsBloom": "0x00000000000000000000000001000000000000002000000000000000000000000000000000000000000000000000000000000004000000000000000000000000000000000000000000000000000008000000000000000000000000000000000000000000000000000000000080000000000000000000000000000000000020000000000000000000000020000000000000000000000200000000000000000000000000000000000000000010000000000000000000000000000000100000000000000000000000000000000000040000000000000000000000000080000000000000000000000000000000000000000000000000000000000000000000000000",
      "type": "0x2",
      "transactionHash": "0x6dd73e28318efdad4b7bac51e1f1f9a456b4860bc49488cdc14d39877a043c5e",
      "transactionIndex": "0x0",
      "blockHash": "0x8c25bd7a40cbb4cdf6bbdf227f5330121464e2134d4e47c6d0eec5b907ab3112",
      "blockNumber": "0xa",
      "gasUsed": "0xbc73",
      "effectiveGasPrice": "0x5d21dba01",
      "from": "0x8db97c7cece249c2b98bdc0226cc4c2a57bf52fc",
      "to": "0x4ac1d98d9cef99ec6546ded4bd550b0b287aad6d",
      "contractAddress": null
    }
  ],
  "libraries": [],
  "pending": [],
  "returns": {},
  "timestamp": 1755572012,
  "chain": 5002,
  "commit": "faf6542"
}