{
  "transactions": [
    {
      "hash": "0x30b2781143349329c1904fe406b480c73a6a34644190a63532fe01e50fc84cd7",
      "transactionType": "CALL",
      "contractName": null,
      "contractAddress": "0x8b3bc4270be2abbb25bc04717830bd1cc493a461",
      "function": "mint(address,uint256)",
      "arguments": [
        "0x8db97C7cEcE249c2b98bDC0226Cc4C2A57BF52FC",
        "1000000000000000000000"
      ],
      "transaction": {
        "from": "0x8db97c7cece249c2b98bdc0226cc4c2a57bf52fc",
        "to": "0x8b3bc4270be2abbb25bc04717830bd1cc493a461",
        "value": "0x0",
        "input": "0x40c10f190000000000000000000000008db97c7cece249c2b98bdc0226cc4c2a57bf52fc00000000000000000000000000000000000000000000003635c9adc5dea00000",
        "nonce": "0xd",
        "chainId": "0x1389"
      },
      "additionalContracts": [],
      "isFixedGasLimit": false
    }
  ],
  "receipts": [
    {
      "status": "0x1",
      "cumulativeGasUsed": "0x10b8e",
      "logs": [
        {
          "address": "0x8b3bc4270be2abbb25bc04717830bd1cc493a461",
          "topics": [
            "0xddf252ad1be2c89b69c2b068fc378daa952ba7f163c4a11628f55a4df523b3ef",
            "0x0000000000000000000000000000000000000000000000000000000000000000",
            "0x0000000000000000000000008db97c7cece249c2b98bdc0226cc4c2a57bf52fc"
          ],
          "data": "0x00000000000000000000000000000000000000000000003635c9adc5dea00000",
          "blockHash": "0x6a7d1a8e7216d39d61151b3e78bb008eb60c90246439a80e6a627d05daa52def",
          "blockNumber": "0x13",
          "transactionHash": "0x30b2781143349329c1904fe406b480c73a6a34644190a63532fe01e50fc84cd7",
          "transactionIndex": "0x0",
          "logIndex": "0x0",
          "removed": false
        }
      ],
      "logsBloom": "0x00000000000800000000000000000000000000000000000000000000000000000000000000000002000000000000000000000000000000000000000000000000000000000000000000000008000000000000000000000000000000000000000000000000020000000000000000000800000000000000000000000010000000000000000000000000000000000000000000000000000000000000000000000000000000000000000000000000000000000000000000000000000000000000000000000002000000000000000000000000000000000000800000000000000020000000000000000200000000000000000000000001000000000080000000000000",
      "type": "0x0",
      "transactionHash": "0x30b2781143349329c1904fe406b480c73a6a34644190a63532fe01e50fc84cd7",
      "transactionIndex": "0x0",
      "blockHash": "0x6a7d1a8e7216d39d61151b3e78bb008eb60c90246439a80e6a627d05daa52def",
      "blockNumber": "0x13",
      "gasUsed": "0x10b8e",
      "effectiveGasPrice": "0x5d21dba01",
      "from": "0x8db97c7cece249c2b98bdc0226cc4c2a57bf52fc",
      "to": "0x8b3bc4270be2abbb25bc04717830bd1cc493a461",
      "contractAddress": null
    }
  ],
  "libraries": [],
  "pending": [],
  "returns": {},
  "timestamp": 1755581918,
  "chain": 5001,
  "commit": "faf6542"
}