{
  "transactions": [
    {
      "hash": "0xa2496eeb0d24aeb3982698ce9fa296b37ba3849f2432a74afc122319a5320cb0",
      "transactionType": "CALL",
      "contractName": null,
      "contractAddress": "0xa4dff80b4a1d748bf28bc4a271ed834689ea3407",
      "function": "mint(address,uint256)",
      "arguments": [
        "0x8db97C7cEcE249c2b98bDC0226Cc4C2A57BF52FC",
        "1000000000000000000000"
      ],
      "transaction": {
        "from": "0x8db97c7cece249c2b98bdc0226cc4c2a57bf52fc",
        "to": "0xa4dff80b4a1d748bf28bc4a271ed834689ea3407",
        "gas": "0x16029",
        "value": "0x0",
        "input": "0x40c10f190000000000000000000000008db97c7cece249c2b98bdc0226cc4c2a57bf52fc00000000000000000000000000000000000000000000003635c9adc5dea00000",
        "nonce": "0x8",
        "chainId": "0x1389"
      },
      "additionalContracts": [],
      "isFixedGasLimit": false
    }
  ],
  "receipts": [
    {
      "status": "0x1",
      "cumulativeGasUsed": "0x10b8e",
      "logs": [
        {
          "address": "0xa4dff80b4a1d748bf28bc4a271ed834689ea3407",
          "topics": [
            "0xddf252ad1be2c89b69c2b068fc378daa952ba7f163c4a11628f55a4df523b3ef",
            "0x0000000000000000000000000000000000000000000000000000000000000000",
            "0x0000000000000000000000008db97c7cece249c2b98bdc0226cc4c2a57bf52fc"
          ],
          "data": "0x00000000000000000000000000000000000000000000003635c9adc5dea00000",
          "blockHash": "0xef07248c5746218ceaf8f2bd316b5634282a4b00502bcf749c4a6563ee398d81",
          "blockNumber": "0xe",
          "transactionHash": "0xa2496eeb0d24aeb3982698ce9fa296b37ba3849f2432a74afc122319a5320cb0",
          "transactionIndex": "0x0",
          "logIndex": "0x0",
          "removed": false
        }
      ],
      "logsBloom": "0x00000000000000000000000000000000000000000000000000000000000000000000000000000000000000000000000000000000000000000000000000000000000000000000000000000008000000000000000000000000000000000000000000000000020000000000000000000800000000000000000000000010080000000000000000000000000000000000000000000000000000000008000000000000000000000000000000000000000000000000000000000000000000000000000000000002000000000000000000000001000000000000800000000000000020000000000000000000000000000000000000000001000000000080000000000000",
      "type": "0x0",
      "transactionHash": "0xa2496eeb0d24aeb3982698ce9fa296b37ba3849f2432a74afc122319a5320cb0",
      "transactionIndex": "0x0",
      "blockHash": "0xef07248c5746218ceaf8f2bd316b5634282a4b00502bcf749c4a6563ee398d81",
      "blockNumber": "0xe",
      "gasUsed": "0x10b8e",
      "effectiveGasPrice": "0x5d21dba01",
      "from": "0x8db97c7cece249c2b98bdc0226cc4c2a57bf52fc",
      "to": "0xa4dff80b4a1d748bf28bc4a271ed834689ea3407",
      "contractAddress": null
    }
  ],
  "libraries": [],
  "pending": [],
  "returns": {},
  "timestamp": 1755563269,
  "chain": 5001,
  "commit": "faf6542"
}