{
  "transactions": [
    {
      "hash": "0x2c468d806e10c7417ade73e12ac14eadd4e702b827ab12056842b25944b691e0",
      "transactionType": "CALL",
      "contractName": null,
      "contractAddress": "0xe3573540ab8a1c4c754fd958dc1db39bbe81b208",
      "function": "setRemoteTokenAddress(bytes32)",
      "arguments": [
        "0x000000000000000000000000a4dff80b4a1d748bf28bc4a271ed834689ea3407"
      ],
      "transaction": {
        "from": "0x8db97c7cece249c2b98bdc0226cc4c2a57bf52fc",
        "to": "0xe3573540ab8a1c4c754fd958dc1db39bbe81b208",
        "gas": "0xec87",
        "value": "0x0",
        "input": "0x9ccca9b4000000000000000000000000a4dff80b4a1d748bf28bc4a271ed834689ea3407",
        "nonce": "0xb",
        "chainId": "0x1869f"
      },
      "additionalContracts": [],
      "isFixedGasLimit": false
    }
  ],
  "receipts": [
    {
      "status": "0x1",
      "cumulativeGasUsed": "0xab3f",
      "logs": [],
      "logsBloom": "0x00000000000000000000000000000000000000000000000000000000000000000000000000000000000000000000000000000000000000000000000000000000000000000000000000000000000000000000000000000000000000000000000000000000000000000000000000000000000000000000000000000000000000000000000000000000000000000000000000000000000000000000000000000000000000000000000000000000000000000000000000000000000000000000000000000000000000000000000000000000000000000000000000000000000000000000000000000000000000000000000000000000000000000000000000000000",
      "type": "0x2",
      "transactionHash": "0x2c468d806e10c7417ade73e12ac14eadd4e702b827ab12056842b25944b691e0",
      "transactionIndex": "0x0",
      "blockHash": "0x6042b3537a731c30e1832aa52c05fb9e4d029594d0aabca2eff76fd581aa62ef",
      "blockNumber": "0xd",
      "gasUsed": "0xab3f",
      "effectiveGasPrice": "0x5d21dba01",
      "from": "0x8db97c7cece249c2b98bdc0226cc4c2a57bf52fc",
      "to": "0xe3573540ab8a1c4c754fd958dc1db39bbe81b208",
      "contractAddress": null
    }
  ],
  "libraries": [],
  "pending": [],
  "returns": {},
  "timestamp": 1755214184,
  "chain": 99999,
  "commit": "faf6542"
}