{
  "transactions": [
    {
      "hash": "0x6717eddb0e4f84f8b0492f1d68b3f635b9cc37610a9ecf96686a38f693a6d0cf",
      "transactionType": "CALL",
      "contractName": null,
      "contractAddress": "0xb8a934dcb74d0e3d1df6bce0fac12cd8b18801ed",
      "function": "setRemoteTokenAddress(bytes32)",
      "arguments": [
        "0x000000000000000000000000a4dff80b4a1d748bf28bc4a271ed834689ea3407"
      ],
      "transaction": {
        "from": "0x8db97c7cece249c2b98bdc0226cc4c2a57bf52fc",
        "to": "0xb8a934dcb74d0e3d1df6bce0fac12cd8b18801ed",
        "gas": "0xec87",
        "value": "0x0",
        "input": "0x9ccca9b4000000000000000000000000a4dff80b4a1d748bf28bc4a271ed834689ea3407",
        "nonce": "0xf",
        "chainId": "0x1869f"
      },
      "additionalContracts": [],
      "isFixedGasLimit": false
    }
  ],
  "receipts": [
    {
      "status": "0x1",
      "cumulativeGasUsed": "0xab3f",
      "logs": [],
      "logsBloom": "0x00000000000000000000000000000000000000000000000000000000000000000000000000000000000000000000000000000000000000000000000000000000000000000000000000000000000000000000000000000000000000000000000000000000000000000000000000000000000000000000000000000000000000000000000000000000000000000000000000000000000000000000000000000000000000000000000000000000000000000000000000000000000000000000000000000000000000000000000000000000000000000000000000000000000000000000000000000000000000000000000000000000000000000000000000000000",
      "type": "0x2",
      "transactionHash": "0x6717eddb0e4f84f8b0492f1d68b3f635b9cc37610a9ecf96686a38f693a6d0cf",
      "transactionIndex": "0x0",
      "blockHash": "0x7fd4e0d38589d620afb9d33901674b38d91976357d81ea46363f6248d9014b80",
      "blockNumber": "0x10",
      "gasUsed": "0xab3f",
      "effectiveGasPrice": "0x5d21dba01",
      "from": "0x8db97c7cece249c2b98bdc0226cc4c2a57bf52fc",
      "to": "0xb8a934dcb74d0e3d1df6bce0fac12cd8b18801ed",
      "contractAddress": null
    }
  ],
  "libraries": [],
  "pending": [],
  "returns": {},
  "timestamp": 1755221425,
  "chain": 99999,
  "commit": "faf6542"
}