{
  "transactions": [
    {
      "hash": "0x1acb391a3b24ff6d18a6d0c8f56089836b613a4f231282ae467f865f82975299",
      "transactionType": "CALL",
      "contractName": null,
      "contractAddress": "0x4ac1d98d9cef99ec6546ded4bd550b0b287aad6d",
      "function": "setTokenHomeAddress(bytes32)",
      "arguments": [
        "0x000000000000000000000000a4cd3b0eb6e5ab5d8ce4065bccd70040adab1f00"
      ],
      "transaction": {
        "from": "0x8db97c7cece249c2b98bdc0226cc4c2a57bf52fc",
        "to": "0x4ac1d98d9cef99ec6546ded4bd550b0b287aad6d",
        "gas": "0x106ce",
        "value": "0x0",
        "input": "0x9633764a000000000000000000000000a4cd3b0eb6e5ab5d8ce4065bccd70040adab1f00",
        "nonce": "0x5",
        "chainId": "0x2b67"
      },
      "additionalContracts": [],
      "isFixedGasLimit": false
    }
  ],
  "receipts": [
    {
      "status": "0x1",
      "cumulativeGasUsed": "0xb3b3",
      "logs": [],
      "logsBloom": "0x00000000000000000000000000000000000000000000000000000000000000000000000000000000000000000000000000000000000000000000000000000000000000000000000000000000000000000000000000000000000000000000000000000000000000000000000000000000000000000000000000000000000000000000000000000000000000000000000000000000000000000000000000000000000000000000000000000000000000000000000000000000000000000000000000000000000000000000000000000000000000000000000000000000000000000000000000000000000000000000000000000000000000000000000000000000",
      "type": "0x2",
      "transactionHash": "0x1acb391a3b24ff6d18a6d0c8f56089836b613a4f231282ae467f865f82975299",
      "transactionIndex": "0x0",
      "blockHash": "0x28f9d9dc34df47a9f401914c587343b58116ea09312414d6226ba73e2b4c0f09",
      "blockNumber": "0xb",
      "gasUsed": "0xb3b3",
      "effectiveGasPrice": "0x5d21dba01",
      "from": "0x8db97c7cece249c2b98bdc0226cc4c2a57bf52fc",
      "to": "0x4ac1d98d9cef99ec6546ded4bd550b0b287aad6d",
      "contractAddress": null
    }
  ],
  "libraries": [],
  "pending": [],
  "returns": {},
  "timestamp": 1755213018,
  "chain": 11111,
  "commit": "faf6542"
}