{
  "transactions": [
    {
      "hash": "0x22e43378e5502484addc51299aa7fa8d379f89e30df6c2bb32084724be69f980",
      "transactionType": "CALL",
      "contractName": null,
      "contractAddress": "0x52c84043cd9c865236f11d9fc9f56aa003c1f922",
      "function": "addOtherBridge(bytes32,address)",
      "arguments": [
        "0x1077a462fa8df36296ce4bd4446a2c8f621e4d7f3a30b1eff31003fdf1915896",
        "0x5aa01B3b5877255cE50cc55e8986a7a5fe29C70e"
      ],
      "transaction": {
        "from": "0x8db97c7cece249c2b98bdc0226cc4c2a57bf52fc",
        "to": "0x52c84043cd9c865236f11d9fc9f56aa003c1f922",
        "gas": "0xf00e",
        "value": "0x0",
        "input": "0x2af3d9c51077a462fa8df36296ce4bd4446a2c8f621e4d7f3a30b1eff31003fdf19158960000000000000000000000005aa01b3b5877255ce50cc55e8986a7a5fe29c70e",
        "nonce": "0x3",
        "chainId": "0x138a"
      },
      "additionalContracts": [],
      "isFixedGasLimit": false
    }
  ],
  "receipts": [
    {
      "status": "0x1",
      "cumulativeGasUsed": "0xadcd",
      "logs": [],
      "logsBloom": "0x00000000000000000000000000000000000000000000000000000000000000000000000000000000000000000000000000000000000000000000000000000000000000000000000000000000000000000000000000000000000000000000000000000000000000000000000000000000000000000000000000000000000000000000000000000000000000000000000000000000000000000000000000000000000000000000000000000000000000000000000000000000000000000000000000000000000000000000000000000000000000000000000000000000000000000000000000000000000000000000000000000000000000000000000000000000",
      "type": "0x2",
      "transactionHash": "0x22e43378e5502484addc51299aa7fa8d379f89e30df6c2bb32084724be69f980",
      "transactionIndex": "0x0",
      "blockHash": "0x1066e855580ea95027a548ad8573ababf09feca5d79891035d7710bc55bac76a",
      "blockNumber": "0xb",
      "gasUsed": "0xadcd",
      "effectiveGasPrice": "0x5d21dba01",
      "from": "0x8db97c7cece249c2b98bdc0226cc4c2a57bf52fc",
      "to": "0x52c84043cd9c865236f11d9fc9f56aa003c1f922",
      "contractAddress": null
    }
  ],
  "libraries": [],
  "pending": [],
  "returns": {},
  "timestamp": 1755484761,
  "chain": 5002,
  "commit": "faf6542"
}