{
  "transactions": [
    {
      "hash": "0x5ae519dd3ae0a3f1b42331c029c14f4aa863d84c552bf7672a00dbe8722125b4",
      "transactionType": "CALL",
      "contractName": null,
      "contractAddress": "0xa4cd3b0eb6e5ab5d8ce4065bccd70040adab1f00",
      "function": "setRemoteTokenAddress(bytes32)",
      "arguments": [
        "0x0000000000000000000000004ac1d98d9cef99ec6546ded4bd550b0b287aad6d"
      ],
      "transaction": {
        "from": "0x8db97c7cece249c2b98bdc0226cc4c2a57bf52fc",
        "to": "0xa4cd3b0eb6e5ab5d8ce4065bccd70040adab1f00",
        "gas": "0xec87",
        "value": "0x0",
        "input": "0x9ccca9b40000000000000000000000004ac1d98d9cef99ec6546ded4bd550b0b287aad6d",
        "nonce": "0x7",
        "chainId": "0x2b67"
      },
      "additionalContracts": [],
      "isFixedGasLimit": false
    }
  ],
  "receipts": [
    {
      "status": "0x1",
      "cumulativeGasUsed": "0xab3f",
      "logs": [],
      "logsBloom": "0x00000000000000000000000000000000000000000000000000000000000000000000000000000000000000000000000000000000000000000000000000000000000000000000000000000000000000000000000000000000000000000000000000000000000000000000000000000000000000000000000000000000000000000000000000000000000000000000000000000000000000000000000000000000000000000000000000000000000000000000000000000000000000000000000000000000000000000000000000000000000000000000000000000000000000000000000000000000000000000000000000000000000000000000000000000000",
      "type": "0x2",
      "transactionHash": "0x5ae519dd3ae0a3f1b42331c029c14f4aa863d84c552bf7672a00dbe8722125b4",
      "transactionIndex": "0x0",
      "blockHash": "0x044f4fdcfdced9b3823514bb7cb0ba01c6ac570b1d8e6f0d5bcc57155db6b49e",
      "blockNumber": "0xa",
      "gasUsed": "0xab3f",
      "effectiveGasPrice": "0x5d21dba01",
      "from": "0x8db97c7cece249c2b98bdc0226cc4c2a57bf52fc",
      "to": "0xa4cd3b0eb6e5ab5d8ce4065bccd70040adab1f00",
      "contractAddress": null
    }
  ],
  "libraries": [],
  "pending": [],
  "returns": {},
  "timestamp": 1755226609,
  "chain": 11111,
  "commit": "faf6542"
}