{
  "transactions": [
    {
      "hash": "0x839bf638e83348569a09f2a3af5e7e3b3d95edee496901b3df8fb17c732fe2d6",
      "transactionType": "CALL",
      "contractName": null,
      "contractAddress": "0xa4dff80b4a1d748bf28bc4a271ed834689ea3407",
      "function": "testMint(address,uint256)",
      "arguments": [
        "0x8db97C7cEcE249c2b98bDC0226Cc4C2A57BF52FC",
        "1000000000000000000"
      ],
      "transaction": {
        "from": "0x8db97c7cece249c2b98bdc0226cc4c2a57bf52fc",
        "to": "0xa4dff80b4a1d748bf28bc4a271ed834689ea3407",
        "gas": "0x193cd",
        "value": "0x0",
        "input": "0xf28e093d0000000000000000000000008db97c7cece249c2b98bdc0226cc4c2a57bf52fc0000000000000000000000000000000000000000000000000de0b6b3a7640000",
        "nonce": "0x7",
        "chainId": "0x2b67"
      },
      "additionalContracts": [],
      "isFixedGasLimit": false
    }
  ],
  "receipts": [
    {
      "status": "0x1",
      "cumulativeGasUsed": "0x1141b",
      "logs": [
        {
          "address": "0xa4dff80b4a1d748bf28bc4a271ed834689ea3407",
          "topics": [
            "0xddf252ad1be2c89b69c2b068fc378daa952ba7f163c4a11628f55a4df523b3ef",
            "0x0000000000000000000000000000000000000000000000000000000000000000",
            "0x0000000000000000000000008db97c7cece249c2b98bdc0226cc4c2a57bf52fc"
          ],
          "data": "0x0000000000000000000000000000000000000000000000000de0b6b3a7640000",
          "blockHash": "0xffad047e999d8a9a860b73db332d23ea91e3c4e5b2433f69083025391e38fa92",
          "blockNumber": "0xd",
          "transactionHash": "0x839bf638e83348569a09f2a3af5e7e3b3d95edee496901b3df8fb17c732fe2d6",
          "transactionIndex": "0x0",
          "logIndex": "0x0",
          "removed": false
        }
      ],
      "logsBloom": "0x00000000000000000000000000000000000000000000000000000000000000000000000000000000000000000000000000000000000000000000000000000000000000000000000000000008000000000000000000000000000000000000000000000000020000000000000000000800000000000000000000000010080000000000000000000000000000000000000000000000000000000008000000000000000000000000000000000000000000000000000000000000000000000000000000000002000000000000000000000001000000000000800000000000000020000000000000000000000000000000000000000001000000000080000000000000",
      "type": "0x2",
      "transactionHash": "0x839bf638e83348569a09f2a3af5e7e3b3d95edee496901b3df8fb17c732fe2d6",
      "transactionIndex": "0x0",
      "blockHash": "0xffad047e999d8a9a860b73db332d23ea91e3c4e5b2433f69083025391e38fa92",
      "blockNumber": "0xd",
      "gasUsed": "0x1141b",
      "effectiveGasPrice": "0x5d21dba01",
      "from": "0x8db97c7cece249c2b98bdc0226cc4c2a57bf52fc",
      "to": "0xa4dff80b4a1d748bf28bc4a271ed834689ea3407",
      "contractAddress": null
    }
  ],
  "libraries": [],
  "pending": [],
  "returns": {},
  "timestamp": 1755214195,
  "chain": 11111,
  "commit": "faf6542"
}