{
  "transactions": [
    {
      "hash": "0x321f53ee581a10730f068887475ae4f166644315a6ac1ece4b6a41a61d4eccc5",
      "transactionType": "CALL",
      "contractName": null,
      "contractAddress": "0xa4cd3b0eb6e5ab5d8ce4065bccd70040adab1f00",
      "function": "setRemoteTokenAddress(bytes32,address)",
      "arguments": [
        "0x1077a462fa8df36296ce4bd4446a2c8f621e4d7f3a30b1eff31003fdf1915896",
        "0xA4cD3b0Eb6E5Ab5d8CE4065BcCD70040ADAB1F00"
      ],
      "transaction": {
        "from": "0x8db97c7cece249c2b98bdc0226cc4c2a57bf52fc",
        "to": "0xa4cd3b0eb6e5ab5d8ce4065bccd70040adab1f00",
        "gas": "0x10424",
        "value": "0x0",
        "input": "0xcb0055dc1077a462fa8df36296ce4bd4446a2c8f621e4d7f3a30b1eff31003fdf1915896000000000000000000000000a4cd3b0eb6e5ab5d8ce4065bccd70040adab1f00",
        "nonce": "0x6",
        "chainId": "0x138a"
      },
      "additionalContracts": [],
      "isFixedGasLimit": false
    },
    {
      "hash": "0x8111ed89a2e1ecc0d339753c2e9ff342ae0924d3b20cd343f6cb6a19a0c7a473",
      "transactionType": "CALL",
      "contractName": null,
      "contractAddress": "0xa4cd3b0eb6e5ab5d8ce4065bccd70040adab1f00",
      "function": "mint(address,uint256)",
      "arguments": [
        "0x1804c8AB1F12E6bbf3894d4083f33e07309d1f38",
        "1000000000000000000000"
      ],
      "transaction": {
        "from": "0x8db97c7cece249c2b98bdc0226cc4c2a57bf52fc",
        "to": "0xa4cd3b0eb6e5ab5d8ce4065bccd70040adab1f00",
        "gas": "0x17186",
        "value": "0x0",
        "input": "0x40c10f190000000000000000000000001804c8ab1f12e6bbf3894d4083f33e07309d1f3800000000000000000000000000000000000000000000003635c9adc5dea00000",
        "nonce": "0x7",
        "chainId": "0x138a"
      },
      "additionalContracts": [],
      "isFixedGasLimit": false
    }
  ],
  "receipts": [
    {
      "status": "0x1",
      "cumulativeGasUsed": "0xbc57",
      "logs": [
        {
          "address": "0xa4cd3b0eb6e5ab5d8ce4065bccd70040adab1f00",
          "topics": [
            "0x5e2ee94e5fcc8d41ae826c007ad7c0469ad36ecc49b851c1c248eef3958b35b7",
            "0x1077a462fa8df36296ce4bd4446a2c8f621e4d7f3a30b1eff31003fdf1915896",
            "0x000000000000000000000000a4cd3b0eb6e5ab5d8ce4065bccd70040adab1f00"
          ],
          "data": "0x",
          "blockHash": "0x4e304ce2d250cf2d3b1f8afd23ef66c415b043ba3a1b362ce69da863196260ea",
          "blockNumber": "0xe",
          "transactionHash": "0x321f53ee581a10730f068887475ae4f166644315a6ac1ece4b6a41a61d4eccc5",
          "transactionIndex": "0x0",
          "logIndex": "0x0",
          "removed": false
        }
      ],
      "logsBloom": "0x00011000000000000000000041000000000000000000000000000000000001000000000000000000000000000000000000000000000000000000000000000000000000000000000000000000000008000000000000000000000080000000000000000000000000000000004000000000000000000000002000000000000000000000000000000000000000000000010000000000000200000000000000000000000000000000000000000000000000000000000000000000000000000000000000000000000000000000000000000000000002000000000000000000000000000000000000000000000000000000000000000000000000000000000000000000",
      "type": "0x2",
      "transactionHash": "0x321f53ee581a10730f068887475ae4f166644315a6ac1ece4b6a41a61d4eccc5",
      "transactionIndex": "0x0",
      "blockHash": "0x4e304ce2d250cf2d3b1f8afd23ef66c415b043ba3a1b362ce69da863196260ea",
      "blockNumber": "0xe",
      "gasUsed": "0xbc57",
      "effectiveGasPrice": "0x5d21dba01",
      "from": "0x8db97c7cece249c2b98bdc0226cc4c2a57bf52fc",
      "to": "0xa4cd3b0eb6e5ab5d8ce4065bccd70040adab1f00",
      "contractAddress": null
    },
    {
      "status": "0x1",
      "cumulativeGasUsed": "0x1c7df",
      "logs": [
        {
          "address": "0xa4cd3b0eb6e5ab5d8ce4065bccd70040adab1f00",
          "topics": [
            "0xddf252ad1be2c89b69c2b068fc378daa952ba7f163c4a11628f55a4df523b3ef",
            "0x0000000000000000000000000000000000000000000000000000000000000000",
            "0x0000000000000000000000001804c8ab1f12e6bbf3894d4083f33e07309d1f38"
          ],
          "data": "0x00000000000000000000000000000000000000000000003635c9adc5dea00000",
          "blockHash": "0x4e304ce2d250cf2d3b1f8afd23ef66c415b043ba3a1b362ce69da863196260ea",
          "blockNumber": "0xe",
          "transactionHash": "0x8111ed89a2e1ecc0d339753c2e9ff342ae0924d3b20cd343f6cb6a19a0c7a473",
          "transactionIndex": "0x1",
          "logIndex": "0x1",
          "removed": false
        }
      ],
      "logsBloom": "0x00010000000000000000000000000000000000000000000000000000000000000000000000000000000000000000000000000000000000000000000000000000000000000000000000000008000000000000000000000000000080000000000000000000020000000001000000000800000000000000002000000010000000000000000000000000000004000000000000000000000000000000000000000000000000000000000000000000000000000000000000000000000000000000000000000002000004000000000000000000000000000000000000000000000020000000000000000000000000000000000000000000000000000000000000000000",
      "type": "0x2",
      "transactionHash": "0x8111ed89a2e1ecc0d339753c2e9ff342ae0924d3b20cd343f6cb6a19a0c7a473",
      "transactionIndex": "0x1",
      "blockHash": "0x4e304ce2d250cf2d3b1f8afd23ef66c415b043ba3a1b362ce69da863196260ea",
      "blockNumber": "0xe",
      "gasUsed": "0x10b88",
      "effectiveGasPrice": "0x5d21dba01",
      "from": "0x8db97c7cece249c2b98bdc0226cc4c2a57bf52fc",
      "to": "0xa4cd3b0eb6e5ab5d8ce4065bccd70040adab1f00",
      "contractAddress": null
    }
  ],
  "libraries": [],
  "pending": [],
  "returns": {},
  "timestamp": 1755493120,
  "chain": 5002,
  "commit": "faf6542"
}