{
  "transactions": [
    {
      "hash": "0x37af41a5cf06f776e636124d62fb85bff6dabeb4edd7b95430a7662e638d0d37",
      "transactionType": "CALL",
      "contractName": null,
      "contractAddress": "0x5aa01b3b5877255ce50cc55e8986a7a5fe29c70e",
      "function": "setHomeBridge(bytes32,address)",
      "arguments": [
        "0xdb96aff228dc3930c766ea67a29579a76f17269c5e7cc8cb2c6e16133822093d",
        "0x5DB9A7629912EBF95876228C24A848de0bfB43A9"
      ],
      "transaction": {
        "from": "0x8db97c7cece249c2b98bdc0226cc4c2a57bf52fc",
        "to": "0x5aa01b3b5877255ce50cc55e8986a7a5fe29c70e",
        "gas": "0x1702c",
        "value": "0x0",
        "input": "0x287500e7db96aff228dc3930c766ea67a29579a76f17269c5e7cc8cb2c6e16133822093d0000000000000000000000005db9a7629912ebf95876228c24a848de0bfb43a9",
        "nonce": "0x3",
        "chainId": "0x2"
      },
      "additionalContracts": [],
      "isFixedGasLimit": false
    }
  ],
  "receipts": [
    {
      "status": "0x1",
      "cumulativeGasUsed": "0x10a8e",
      "logs": [
        {
          "address": "0x5aa01b3b5877255ce50cc55e8986a7a5fe29c70e",
          "topics": [
            "0x6276ab3608d0533be5104c288c4c70340910e53c34df08a19f86d6dd87ca8955",
            "0xdb96aff228dc3930c766ea67a29579a76f17269c5e7cc8cb2c6e16133822093d",
            "0x0000000000000000000000005db9a7629912ebf95876228c24a848de0bfb43a9"
          ],
          "data": "0x",
          "blockHash": "0xe6c48eb8f178f275bcb6302a828cc94f2abdc30abb10745246eab02014fd605a",
          "blockNumber": "0xd",
          "transactionHash": "0x37af41a5cf06f776e636124d62fb85bff6dabeb4edd7b95430a7662e638d0d37",
          "transactionIndex": "0x0",
          "logIndex": "0x0",
          "removed": false
        }
      ],
      "logsBloom": "0x00000000000402000000000000000000000000000000000002000000000000000000000000000000000000000000000000000000020000000008000000000000000000000000000000000000000000000000000400000000000000000000000000040000000000000000000000000000000000000000000000000000000000000000000000000080000000000000000800000000000000000000000400000000000000000100000000000000000000000000000000000000000000000000000000000000000000000040000000000000000000000000000000000000000000000000000000000000000000000000000000000000000000000000000000000000",
      "type": "0x2",
      "transactionHash": "0x37af41a5cf06f776e636124d62fb85bff6dabeb4edd7b95430a7662e638d0d37",
      "transactionIndex": "0x0",
      "blockHash": "0xe6c48eb8f178f275bcb6302a828cc94f2abdc30abb10745246eab02014fd605a",
      "blockNumber": "0xd",
      "gasUsed": "0x10a8e",
      "effectiveGasPrice": "0x5d21dba01",
      "from": "0x8db97c7cece249c2b98bdc0226cc4c2a57bf52fc",
      "to": "0x5aa01b3b5877255ce50cc55e8986a7a5fe29c70e",
      "contractAddress": null
    }
  ],
  "libraries": [],
  "pending": [],
  "returns": {},
  "timestamp": 1755399922,
  "chain": 2,
  "commit": "faf6542"
}