{
  "transactions": [
    {
      "hash": "0x49580c27a08e91900a1f90a456670c2509f24e660db401c279f351958066d426",
      "transactionType": "CALL",
      "contractName": null,
      "contractAddress": "0xa4dff80b4a1d748bf28bc4a271ed834689ea3407",
      "function": "burn(uint256)",
      "arguments": [
        "1000000000000000000"
      ],
      "transaction": {
        "from": "0x8db97c7cece249c2b98bdc0226cc4c2a57bf52fc",
        "to": "0xa4dff80b4a1d748bf28bc4a271ed834689ea3407",
        "gas": "0x9a7d",
        "value": "0x0",
        "input": "0x42966c680000000000000000000000000000000000000000000000000de0b6b3a7640000",
        "nonce": "0x8",
        "chainId": "0x2b67"
      },
      "additionalContracts": [],
      "isFixedGasLimit": false
    }
  ],
  "receipts": [
    {
      "status": "0x1",
      "cumulativeGasUsed": "0x840b",
      "logs": [
        {
          "address": "0xa4dff80b4a1d748bf28bc4a271ed834689ea3407",
          "topics": [
            "0xddf252ad1be2c89b69c2b068fc378daa952ba7f163c4a11628f55a4df523b3ef",
            "0x0000000000000000000000008db97c7cece249c2b98bdc0226cc4c2a57bf52fc",
            "0x0000000000000000000000000000000000000000000000000000000000000000"
          ],
          "data": "0x0000000000000000000000000000000000000000000000000de0b6b3a7640000",
          "blockHash": "0xf2e8e671d084b9777715cfeeb40c1283ab5f0f245d4ad69e34dc1af7ae46ea4a",
          "blockNumber": "0xe",
          "transactionHash": "0x49580c27a08e91900a1f90a456670c2509f24e660db401c279f351958066d426",
          "transactionIndex": "0x0",
          "logIndex": "0x0",
          "removed": false
        }
      ],
      "logsBloom": "0x00000000000000000000000000000000000000000000000000000000000000000000000000000000000000000000000000000000000000000000000000000000000000000000000000000008000000000000000000000000000000000000000000000000020000000000000000000800000000000000000000000010080000000000000000000000000000000000000000000000000000000008000000000000000000000000000000000000000000000000000000000000000000000000000000000002000000000000000000000001000000000000800000000000000020000000000000000000000000000000000000000001000000000080000000000000",
      "type": "0x2",
      "transactionHash": "0x49580c27a08e91900a1f90a456670c2509f24e660db401c279f351958066d426",
      "transactionIndex": "0x0",
      "blockHash": "0xf2e8e671d084b9777715cfeeb40c1283ab5f0f245d4ad69e34dc1af7ae46ea4a",
      "blockNumber": "0xe",
      "gasUsed": "0x840b",
      "effectiveGasPrice": "0x5d21dba01",
      "from": "0x8db97c7cece249c2b98bdc0226cc4c2a57bf52fc",
      "to": "0xa4dff80b4a1d748bf28bc4a271ed834689ea3407",
      "contractAddress": null
    }
  ],
  "libraries": [],
  "pending": [],
  "returns": {},
  "timestamp": 1755214952,
  "chain": 11111,
  "commit": "faf6542"
}