{
  "transactions": [
    {
      "hash": "0x7a843cd3c492607adaf98c2dd9f7f53496d90c997f4fcfa554918ae636f86152",
      "transactionType": "CALL",
      "contractName": null,
      "contractAddress": "0x7b4982e1f7ee384f206417fb851a1eb143c513f9",
      "function": "setRemoteMessenger(bytes32,address)",
      "arguments": [
        "0xe05c2505ace501a762fbb59fb81fc370a5a414f7f49a8dbbd2af501d57a12312",
        "0xE3573540ab8A1C4c754Fd958Dc1db39BBE81b208"
      ],
      "transaction": {
        "from": "0x8db97c7cece249c2b98bdc0226cc4c2a57bf52fc",
        "to": "0x7b4982e1f7ee384f206417fb851a1eb143c513f9",
        "gas": "0xe3fa",
        "value": "0x0",
        "input": "0x0d721f78e05c2505ace501a762fbb59fb81fc370a5a414f7f49a8dbbd2af501d57a12312000000000000000000000000e3573540ab8a1c4c754fd958dc1db39bbe81b208",
        "nonce": "0xf",
        "chainId": "0x1389"
      },
      "additionalContracts": [],
      "isFixedGasLimit": false
    },
    {
      "hash": "0xd96b9e1abf9bc3e6c3af62bad54ca5f45a66ee3377cf45fbebbcb9c7490442ce",
      "transactionType": "CALL",
      "contractName": null,
      "contractAddress": "0x55a4edd8a2c051079b426e9fbdee285368824a89",
      "function": "setRemoteTokenAddress(bytes32,address)",
      "arguments": [
        "0xe05c2505ace501a762fbb59fb81fc370a5a414f7f49a8dbbd2af501d57a12312",
        "0x8B3BC4270BE2abbB25BC04717830bd1Cc493a461"
      ],
      "transaction": {
        "from": "0x8db97c7cece249c2b98bdc0226cc4c2a57bf52fc",
        "to": "0x55a4edd8a2c051079b426e9fbdee285368824a89",
        "gas": "0xf6ec",
        "value": "0x0",
        "input": "0xcb0055dce05c2505ace501a762fbb59fb81fc370a5a414f7f49a8dbbd2af501d57a123120000000000000000000000008b3bc4270be2abbb25bc04717830bd1cc493a461",
        "nonce": "0x10",
        "chainId": "0x1389"
      },
      "additionalContracts": [],
      "isFixedGasLimit": false
    }
  ],
  "receipts": [
    {
      "status": "0x1",
      "cumulativeGasUsed": "0xade3",
      "logs": [],
      "logsBloom": "0x00000000000000000000000000000000000000000000000000000000000000000000000000000000000000000000000000000000000000000000000000000000000000000000000000000000000000000000000000000000000000000000000000000000000000000000000000000000000000000000000000000000000000000000000000000000000000000000000000000000000000000000000000000000000000000000000000000000000000000000000000000000000000000000000000000000000000000000000000000000000000000000000000000000000000000000000000000000000000000000000000000000000000000000000000000000",
      "type": "0x0",
      "transactionHash": "0x7a843cd3c492607adaf98c2dd9f7f53496d90c997f4fcfa554918ae636f86152",
      "transactionIndex": "0x0",
      "blockHash": "0x68d8492ac7bcc6dd94d618a20a15809a1ea706028e87feb3d1f50d1dc6ae2f98",
      "blockNumber": "0x19",
      "gasUsed": "0xade3",
      "effectiveGasPrice": "0x5d21dba01",
      "from": "0x8db97c7cece249c2b98bdc0226cc4c2a57bf52fc",
      "to": "0x7b4982e1f7ee384f206417fb851a1eb143c513f9",
      "contractAddress": null
    },
    {
      "status": "0x1",
      "cumulativeGasUsed": "0xbc6f",
      "logs": [
        {
          "address": "0x55a4edd8a2c051079b426e9fbdee285368824a89",
          "topics": [
            "0x5e2ee94e5fcc8d41ae826c007ad7c0469ad36ecc49b851c1c248eef3958b35b7",
            "0xe05c2505ace501a762fbb59fb81fc370a5a414f7f49a8dbbd2af501d57a12312",
            "0x0000000000000000000000008b3bc4270be2abbb25bc04717830bd1cc493a461"
          ],
          "data": "0x",
          "blockHash": "0xfd57711af15bd988f3178177b3c6fefdec2ba3bd3e1e299e0737659d5506c1ea",
          "blockNumber": "0x1a",
          "transactionHash": "0xd96b9e1abf9bc3e6c3af62bad54ca5f45a66ee3377cf45fbebbcb9c7490442ce",
          "transactionIndex": "0x0",
          "logIndex": "0x0",
          "removed": false
        }
      ],
      "logsBloom": "0x00000000000040000000000001000000000000000000000000000000000000000000000000000000000000000000000000000000000000000000000000000000000000000000000000008000000008000000000000000000000000000000000000000180000000000000000000080000000000000000000000000000000000000000000000000000000000000000000000000000000200004000000000000000000000000000000000000000000000000000000000000000000000000000000002000000000000000000000000000000080000000000000000000000000000000000004000000000000000000000000000000000000000000000000000000000",
      "type": "0x0",
      "transactionHash": "0xd96b9e1abf9bc3e6c3af62bad54ca5f45a66ee3377cf45fbebbcb9c7490442ce",
      "transactionIndex": "0x0",
      "blockHash": "0xfd57711af15bd988f3178177b3c6fefdec2ba3bd3e1e299e0737659d5506c1ea",
      "blockNumber": "0x1a",
      "gasUsed": "0xbc6f",
      "effectiveGasPrice": "0x5d21dba01",
      "from": "0x8db97c7cece249c2b98bdc0226cc4c2a57bf52fc",
      "to": "0x55a4edd8a2c051079b426e9fbdee285368824a89",
      "contractAddress": null
    }
  ],
  "libraries": [],
  "pending": [],
  "returns": {},
  "timestamp": 1755509124,
  "chain": 5001,
  "commit": "faf6542"
}