{
  "transactions": [
    {
      "hash": "0x3a8827c5bc955b23e2d73aa9daac35fd0e2ff15f0eec55f4d6f454393cbc3c06",
      "transactionType": "CALL",
      "contractName": null,
      "contractAddress": "0xa4cd3b0eb6e5ab5d8ce4065bccd70040adab1f00",
      "function": "setRemoteTokenAddress(bytes32)",
      "arguments": [
        "0x0000000000000000000000004ac1d98d9cef99ec6546ded4bd550b0b287aad6d"
      ],
      "transaction": {
        "from": "0x8db97c7cece249c2b98bdc0226cc4c2a57bf52fc",
        "to": "0xa4cd3b0eb6e5ab5d8ce4065bccd70040adab1f00",
        "gas": "0xec2b",
        "value": "0x0",
        "input": "0x9ccca9b40000000000000000000000004ac1d98d9cef99ec6546ded4bd550b0b287aad6d",
        "nonce": "0x7",
        "chainId": "0x2b67"
      },
      "additionalContracts": [],
      "isFixedGasLimit": false
    }
  ],
  "receipts": [
    {
      "status": "0x1",
      "cumulativeGasUsed": "0xaafc",
      "logs": [],
      "logsBloom": "0x00000000000000000000000000000000000000000000000000000000000000000000000000000000000000000000000000000000000000000000000000000000000000000000000000000000000000000000000000000000000000000000000000000000000000000000000000000000000000000000000000000000000000000000000000000000000000000000000000000000000000000000000000000000000000000000000000000000000000000000000000000000000000000000000000000000000000000000000000000000000000000000000000000000000000000000000000000000000000000000000000000000000000000000000000000000",
      "type": "0x2",
      "transactionHash": "0x3a8827c5bc955b23e2d73aa9daac35fd0e2ff15f0eec55f4d6f454393cbc3c06",
      "transactionIndex": "0x0",
      "blockHash": "0x5fa7de91f61e1262ed2d671b2fb8ad5a985900a413b56ced1d84902c80b9e9f3",
      "blockNumber": "0xa",
      "gasUsed": "0xaafc",
      "effectiveGasPrice": "0x5d21dba01",
      "from": "0x8db97c7cece249c2b98bdc0226cc4c2a57bf52fc",
      "to": "0xa4cd3b0eb6e5ab5d8ce4065bccd70040adab1f00",
      "contractAddress": null
    }
  ],
  "libraries": [],
  "pending": [],
  "returns": {},
  "timestamp": 1755236413,
  "chain": 11111,
  "commit": "faf6542"
}