{
  "transactions": [
    {
      "hash": "0xa9cd3340d754557cd5e9cfa67907f5e1431a26a1ebbc4ac6b1b15d791793ab0b",
      "transactionType": "CALL",
      "contractName": null,
      "contractAddress": "0xb8a934dcb74d0e3d1df6bce0fac12cd8b18801ed",
      "function": "mint(address,uint256)",
      "arguments": [
        "0x8db97C7cEcE249c2b98bDC0226Cc4C2A57BF52FC",
        "1000000000000000000000"
      ],
      "transaction": {
        "from": "0x8db97c7cece249c2b98bdc0226cc4c2a57bf52fc",
        "to": "0xb8a934dcb74d0e3d1df6bce0fac12cd8b18801ed",
        "gas": "0xb908",
        "value": "0x0",
        "input": "0x40c10f190000000000000000000000008db97c7cece249c2b98bdc0226cc4c2a57bf52fc00000000000000000000000000000000000000000000003635c9adc5dea00000",
        "nonce": "0x14",
        "chainId": "0xb"
      },
      "additionalContracts": [],
      "isFixedGasLimit": false
    }
  ],
  "receipts": [
    {
      "status": "0x1",
      "cumulativeGasUsed": "0x85f6",
      "logs": [
        {
          "address": "0xb8a934dcb74d0e3d1df6bce0fac12cd8b18801ed",
          "topics": [
            "0xddf252ad1be2c89b69c2b068fc378daa952ba7f163c4a11628f55a4df523b3ef",
            "0x0000000000000000000000000000000000000000000000000000000000000000",
            "0x0000000000000000000000008db97c7cece249c2b98bdc0226cc4c2a57bf52fc"
          ],
          "data": "0x00000000000000000000000000000000000000000000003635c9adc5dea00000",
          "blockHash": "0xefe3811fed4e8b63129d6916b5dc8e681208389c5203e601bb3dfdbdbc0eb42b",
          "blockNumber": "0x1b",
          "transactionHash": "0xa9cd3340d754557cd5e9cfa67907f5e1431a26a1ebbc4ac6b1b15d791793ab0b",
          "transactionIndex": "0x0",
          "logIndex": "0x0",
          "removed": false
        }
      ],
      "logsBloom": "0x00000000000000000000000000000000000000000000000000000000000000000000000000000000000000000000000000000000000000000000000000000000000000000000000000000008000000000000000000000000000000000000000008000000020000000002000000000800000000000000000000000010000000040000000000000000000000000000000000000000000000000000000000000000000000000000000000000000000000000000000000000000000000000000000000000002000000000000000000000000000000000000800000000000000020000000000000000000000000000000000000000001000000000080000000000000",
      "type": "0x2",
      "transactionHash": "0xa9cd3340d754557cd5e9cfa67907f5e1431a26a1ebbc4ac6b1b15d791793ab0b",
      "transactionIndex": "0x0",
      "blockHash": "0xefe3811fed4e8b63129d6916b5dc8e681208389c5203e601bb3dfdbdbc0eb42b",
      "blockNumber": "0x1b",
      "gasUsed": "0x85f6",
      "effectiveGasPrice": "0x5d21dba01",
      "from": "0x8db97c7cece249c2b98bdc0226cc4c2a57bf52fc",
      "to": "0xb8a934dcb74d0e3d1df6bce0fac12cd8b18801ed",
      "contractAddress": null
    }
  ],
  "libraries": [],
  "pending": [],
  "returns": {},
  "timestamp": 1755671681,
  "chain": 11,
  "commit": "faf6542"
}