{
  "transactions": [
    {
      "hash": "0x895eed4c74594b03fbaeeaeab5c78b86b70c301cc5346ec289e0a4254eda2183",
      "transactionType": "CALL",
      "contractName": null,
      "contractAddress": "0x8b3bc4270be2abbb25bc04717830bd1cc493a461",
      "function": "sendTokens(bytes32,address,uint256)",
      "arguments": [
        "0x5d493647fea7f15ba58f119fc206fdbc8059a43cf12321ee3c1d60a2ab2d8102",
        "0x8db97C7cEcE249c2b98bDC0226Cc4C2A57BF52FC",
        "10000000000000000000"
      ],
      "transaction": {
        "from": "0x8db97c7cece249c2b98bdc0226cc4c2a57bf52fc",
        "to": "0x8b3bc4270be2abbb25bc04717830bd1cc493a461",
        "value": "0x0",
        "input": "0x1a48b6d15d493647fea7f15ba58f119fc206fdbc8059a43cf12321ee3c1d60a2ab2d81020000000000000000000000008db97c7cece249c2b98bdc0226cc4c2a57bf52fc0000000000000000000000000000000000000000000000008ac7230489e80000",
        "nonce": "0xf",
        "chainId": "0x1389"
      },
      "additionalContracts": [],
      "isFixedGasLimit": false
    }
  ],
  "receipts": [
    {
      "status": "0x1",
      "cumulativeGasUsed": "0x23e96",
      "logs": [
        {
          "address": "0x8b3bc4270be2abbb25bc04717830bd1cc493a461",
          "topics": [
            "0xddf252ad1be2c89b69c2b068fc378daa952ba7f163c4a11628f55a4df523b3ef",
            "0x0000000000000000000000008db97c7cece249c2b98bdc0226cc4c2a57bf52fc",
            "0x0000000000000000000000000000000000000000000000000000000000000000"
          ],
          "data": "0x0000000000000000000000000000000000000000000000008ac7230489e80000",
          "blockHash": "0x46a3e73b3009ebb234d0b438ff336bceeac9823f19c5cb8ea3c56f3ac2bab78c",
          "blockNumber": "0x15",
          "transactionHash": "0x895eed4c74594b03fbaeeaeab5c78b86b70c301cc5346ec289e0a4254eda2183",
          "transactionIndex": "0x0",
          "logIndex": "0x0",
          "removed": false
        },
        {
          "address": "0x253b2784c75e510dd0ff1da844684a1ac0aa5fcf",
          "topics": [
            "0x2a211ad4a59ab9d003852404f9c57c690704ee755f3c79d2c2812ad32da99df8",
            "0xdbb6c811b5797b26bc389d4a5826ac09aa7e9669e591971971f7888c4cc02df5",
            "0x5d493647fea7f15ba58f119fc206fdbc8059a43cf12321ee3c1d60a2ab2d8102"
          ],
          "data": "0x00000000000000000000000000000000000000000000000000000000000000600000000000000000000000000000000000000000000000000000000000000000000000000000000000000000000000000000000000000000000000000000000000000000000000000000000000000000000000000000000000000000000000060000000000000000000000008b3bc4270be2abbb25bc04717830bd1cc493a4615d493647fea7f15ba58f119fc206fdbc8059a43cf12321ee3c1d60a2ab2d8102000000000000000000000000a4dff80b4a1d748bf28bc4a271ed834689ea34070000000000000000000000000000000000000000000000000000000000030d400000000000000000000000000000000000000000000000000000000000000100000000000000000000000000000000000000000000000000000000000000012000000000000000000000000000000000000000000000000000000000000001400000000000000000000000000000000000000000000000000000000000000000000000000000000000000000000000000000000000000000000000000000000000000000000000000000000000000000000000000000000000000000000000400000000000000000000000008db97c7cece249c2b98bdc0226cc4c2a57bf52fc0000000000000000000000000000000000000000000000008ac7230489e80000",
          "blockHash": "0x46a3e73b3009ebb234d0b438ff336bceeac9823f19c5cb8ea3c56f3ac2bab78c",
          "blockNumber": "0x15",
          "transactionHash": "0x895eed4c74594b03fbaeeaeab5c78b86b70c301cc5346ec289e0a4254eda2183",
          "transactionIndex": "0x0",
          "logIndex": "0x1",
          "removed": false
        },
        {
          "address": "0x0200000000000000000000000000000000000005",
          "topics": [
            "0x56600c567728a800c0aa927500f831cb451df66a7af570eb4df4dfbf4674887d",
            "0x000000000000000000000000253b2784c75e510dd0ff1da844684a1ac0aa5fcf",
            "0xb4a1ee4dfc73e5b22cfd2f687036e80f5e8ff23361fc1d3a216fd825993f4409"
          ],
          "data": "0x0000000000000000000000000000000000000000000000000000000000000020000000000000000000000000000000000000000000000000000000000000020c00000000053976922bee12483f57821e38c2672b86f4f6fa23fa9b4ad805daa9998e778351d5000001e200000000000100000014253b2784c75e510dd0ff1da844684a1ac0aa5fcf000001c0000000000000000000000000000000000000000000000000000000000000002000000000000000000000000000000000000000000000000000000000000000060000000000000000000000008b3bc4270be2abbb25bc04717830bd1cc493a4615d493647fea7f15ba58f119fc206fdbc8059a43cf12321ee3c1d60a2ab2d8102000000000000000000000000a4dff80b4a1d748bf28bc4a271ed834689ea34070000000000000000000000000000000000000000000000000000000000030d400000000000000000000000000000000000000000000000000000000000000100000000000000000000000000000000000000000000000000000000000000012000000000000000000000000000000000000000000000000000000000000001400000000000000000000000000000000000000000000000000000000000000000000000000000000000000000000000000000000000000000000000000000000000000000000000000000000000000000000000000000000000000000000000400000000000000000000000008db97c7cece249c2b98bdc0226cc4c2a57bf52fc0000000000000000000000000000000000000000000000008ac7230489e800000000000000000000000000000000000000000000",
          "blockHash": "0x46a3e73b3009ebb234d0b438ff336bceeac9823f19c5cb8ea3c56f3ac2bab78c",
          "blockNumber": "0x15",
          "transactionHash": "0x895eed4c74594b03fbaeeaeab5c78b86b70c301cc5346ec289e0a4254eda2183",
          "transactionIndex": "0x0",
          "logIndex": "0x2",
          "removed": false
        },
        {
          "address": "0x8b3bc4270be2abbb25bc04717830bd1cc493a461",
          "topics": [
            "0x0ec64aabe044575693f7a7f0b6bb9d956e881231c1e5986701dc9e8ee6a25ec1",
            "0x5d493647fea7f15ba58f119fc206fdbc8059a43cf12321ee3c1d60a2ab2d8102",
            "0x0000000000000000000000008db97c7cece249c2b98bdc0226cc4c2a57bf52fc"
          ],
          "data": "0x0000000000000000000000000000000000000000000000008ac7230489e80000",
          "blockHash": "0x46a3e73b3009ebb234d0b438ff336bceeac9823f19c5cb8ea3c56f3ac2bab78c",
          "blockNumber": "0x15",
          "transactionHash": "0x895eed4c74594b03fbaeeaeab5c78b86b70c301cc5346ec289e0a4254eda2183",
          "transactionIndex": "0x0",
          "logIndex": "0x3",
          "removed": false
        }
      ],
      "logsBloom": "0x0000000000080080000000000000000000000000000000000000000000000002000000008000001200001000000000000020000000000000000000000000000000000000010000000000000802000000000000000000000000800000000000200000000002000000000400000000081000000000000000000000001000000000000000000000000002004000000000000000000002000000000000000000000004000000000000000000000000080000000000000000000000000000000000002800000300800001000000000000040000000000000080000000000000002000000000000000020000000000100000000000000100000000008000a000000000",
      "type": "0x0",
      "transactionHash": "0x895eed4c74594b03fbaeeaeab5c78b86b70c301cc5346ec289e0a4254eda2183",
      "transactionIndex": "0x0",
      "blockHash": "0x46a3e73b3009ebb234d0b438ff336bceeac9823f19c5cb8ea3c56f3ac2bab78c",
      "blockNumber": "0x15",
      "gasUsed": "0x23e96",
      "effectiveGasPrice": "0x5d21dba01",
      "from": "0x8db97c7cece249c2b98bdc0226cc4c2a57bf52fc",
      "to": "0x8b3bc4270be2abbb25bc04717830bd1cc493a461",
      "contractAddress": null
    }
  ],
  "libraries": [],
  "pending": [],
  "returns": {},
  "timestamp": 1755584866,
  "chain": 5001,
  "commit": "faf6542"
}