{
  "transactions": [
    {
      "hash": "0xe906a1f4eb59795aa25b30091f76111fbf2adf35b540f5fec3cf0419b6d124ba",
      "transactionType": "CALL",
      "contractName": null,
      "contractAddress": "0x8b3bc4270be2abbb25bc04717830bd1cc493a461",
      "function": "sendTokens(bytes32,address,uint256)",
      "arguments": [
        "0x5d493647fea7f15ba58f119fc206fdbc8059a43cf12321ee3c1d60a2ab2d8102",
        "0x8db97C7cEcE249c2b98bDC0226Cc4C2A57BF52FC",
        "10000000000000000000"
      ],
      "transaction": {
        "from": "0x8db97c7cece249c2b98bdc0226cc4c2a57bf52fc",
        "to": "0x8b3bc4270be2abbb25bc04717830bd1cc493a461",
        "value": "0x0",
        "input": "0x1a48b6d15d493647fea7f15ba58f119fc206fdbc8059a43cf12321ee3c1d60a2ab2d81020000000000000000000000008db97c7cece249c2b98bdc0226cc4c2a57bf52fc0000000000000000000000000000000000000000000000008ac7230489e80000",
        "nonce": "0xe",
        "chainId": "0x1389"
      },
      "additionalContracts": [],
      "isFixedGasLimit": false
    }
  ],
  "receipts": [
    {
      "status": "0x1",
      "cumulativeGasUsed": "0x23e96",
      "logs": [
        {
          "address": "0x8b3bc4270be2abbb25bc04717830bd1cc493a461",
          "topics": [
            "0xddf252ad1be2c89b69c2b068fc378daa952ba7f163c4a11628f55a4df523b3ef",
            "0x0000000000000000000000008db97c7cece249c2b98bdc0226cc4c2a57bf52fc",
            "0x0000000000000000000000000000000000000000000000000000000000000000"
          ],
          "data": "0x0000000000000000000000000000000000000000000000008ac7230489e80000",
          "blockHash": "0x0579467ae4caba24b92339e1761caff162a46732254682e3702db6bf9f3495d0",
          "blockNumber": "0x14",
          "transactionHash": "0xe906a1f4eb59795aa25b30091f76111fbf2adf35b540f5fec3cf0419b6d124ba",
          "transactionIndex": "0x0",
          "logIndex": "0x0",
          "removed": false
        },
        {
          "address": "0x253b2784c75e510dd0ff1da844684a1ac0aa5fcf",
          "topics": [
            "0x2a211ad4a59ab9d003852404f9c57c690704ee755f3c79d2c2812ad32da99df8",
            "0xeeba1376021010b5bf858d9e3cf18c5de65c1546f5d80f362885a1d29e3a8618",
            "0x5d493647fea7f15ba58f119fc206fdbc8059a43cf12321ee3c1d60a2ab2d8102"
          ],
          "data": "0x00000000000000000000000000000000000000000000000000000000000000600000000000000000000000000000000000000000000000000000000000000000000000000000000000000000000000000000000000000000000000000000000000000000000000000000000000000000000000000000000000000000000000050000000000000000000000008b3bc4270be2abbb25bc04717830bd1cc493a4615d493647fea7f15ba58f119fc206fdbc8059a43cf12321ee3c1d60a2ab2d8102000000000000000000000000a4dff80b4a1d748bf28bc4a271ed834689ea34070000000000000000000000000000000000000000000000000000000000030d400000000000000000000000000000000000000000000000000000000000000100000000000000000000000000000000000000000000000000000000000000012000000000000000000000000000000000000000000000000000000000000001400000000000000000000000000000000000000000000000000000000000000000000000000000000000000000000000000000000000000000000000000000000000000000000000000000000000000000000000000000000000000000000000400000000000000000000000008db97c7cece249c2b98bdc0226cc4c2a57bf52fc0000000000000000000000000000000000000000000000008ac7230489e80000",
          "blockHash": "0x0579467ae4caba24b92339e1761caff162a46732254682e3702db6bf9f3495d0",
          "blockNumber": "0x14",
          "transactionHash": "0xe906a1f4eb59795aa25b30091f76111fbf2adf35b540f5fec3cf0419b6d124ba",
          "transactionIndex": "0x0",
          "logIndex": "0x1",
          "removed": false
        },
        {
          "address": "0x0200000000000000000000000000000000000005",
          "topics": [
            "0x56600c567728a800c0aa927500f831cb451df66a7af570eb4df4dfbf4674887d",
            "0x000000000000000000000000253b2784c75e510dd0ff1da844684a1ac0aa5fcf",
            "0x06fc7f95294b14b1ca7d9ef3b80f4ebb7b8b6df4d5c429ee216feb2aabf1461f"
          ],
          "data": "0x0000000000000000000000000000000000000000000000000000000000000020000000000000000000000000000000000000000000000000000000000000020c00000000053976922bee12483f57821e38c2672b86f4f6fa23fa9b4ad805daa9998e778351d5000001e200000000000100000014253b2784c75e510dd0ff1da844684a1ac0aa5fcf000001c0000000000000000000000000000000000000000000000000000000000000002000000000000000000000000000000000000000000000000000000000000000050000000000000000000000008b3bc4270be2abbb25bc04717830bd1cc493a4615d493647fea7f15ba58f119fc206fdbc8059a43cf12321ee3c1d60a2ab2d8102000000000000000000000000a4dff80b4a1d748bf28bc4a271ed834689ea34070000000000000000000000000000000000000000000000000000000000030d400000000000000000000000000000000000000000000000000000000000000100000000000000000000000000000000000000000000000000000000000000012000000000000000000000000000000000000000000000000000000000000001400000000000000000000000000000000000000000000000000000000000000000000000000000000000000000000000000000000000000000000000000000000000000000000000000000000000000000000000000000000000000000000000400000000000000000000000008db97c7cece249c2b98bdc0226cc4c2a57bf52fc0000000000000000000000000000000000000000000000008ac7230489e800000000000000000000000000000000000000000000",
          "blockHash": "0x0579467ae4caba24b92339e1761caff162a46732254682e3702db6bf9f3495d0",
          "blockNumber": "0x14",
          "transactionHash": "0xe906a1f4eb59795aa25b30091f76111fbf2adf35b540f5fec3cf0419b6d124ba",
          "transactionIndex": "0x0",
          "logIndex": "0x2",
          "removed": false
        },
        {
          "address": "0x8b3bc4270be2abbb25bc04717830bd1cc493a461",
          "topics": [
            "0x0ec64aabe044575693f7a7f0b6bb9d956e881231c1e5986701dc9e8ee6a25ec1",
            "0x5d493647fea7f15ba58f119fc206fdbc8059a43cf12321ee3c1d60a2ab2d8102",
            "0x0000000000000000000000008db97c7cece249c2b98bdc0226cc4c2a57bf52fc"
          ],
          "data": "0x0000000000000000000000000000000000000000000000008ac7230489e80000",
          "blockHash": "0x0579467ae4caba24b92339e1761caff162a46732254682e3702db6bf9f3495d0",
          "blockNumber": "0x14",
          "transactionHash": "0xe906a1f4eb59795aa25b30091f76111fbf2adf35b540f5fec3cf0419b6d124ba",
          "transactionIndex": "0x0",
          "logIndex": "0x3",
          "removed": false
        }
      ],
      "logsBloom": "0x00000000020800800000000000000000000000000000000000000004000000020000000080000012000010000000000000200000000000000000000000000000000000000100000000000008020000000000000400000000000000000000002000000000020000000004000000000800000000000000000000000010008000000000000000000000020040800000000200000000020000000000000000000000040000000000000000000000000800000000000000000000000000000000000008000003008000010000000000000400000000000000800000000000000020000000000000000200000000000000000000000001000000000080008000000000",
      "type": "0x0",
      "transactionHash": "0xe906a1f4eb59795aa25b30091f76111fbf2adf35b540f5fec3cf0419b6d124ba",
      "transactionIndex": "0x0",
      "blockHash": "0x0579467ae4caba24b92339e1761caff162a46732254682e3702db6bf9f3495d0",
      "blockNumber": "0x14",
      "gasUsed": "0x23e96",
      "effectiveGasPrice": "0x5d21dba01",
      "from": "0x8db97c7cece249c2b98bdc0226cc4c2a57bf52fc",
      "to": "0x8b3bc4270be2abbb25bc04717830bd1cc493a461",
      "contractAddress": null
    }
  ],
  "libraries": [],
  "pending": [],
  "returns": {},
  "timestamp": 1755582168,
  "chain": 5001,
  "commit": "faf6542"
}