{
  "transactions": [
    {
      "hash": "0x7a9e4cc6424f0e8758fecdb30ac126e0f284fb49da8bc7f503f625b9170c9f6f",
      "transactionType": "CALL",
      "contractName": null,
      "contractAddress": "0xe336d36faca76840407e6836d26119e1ece0a2b4",
      "function": "setRemoteTokenAddress(bytes32,address)",
      "arguments": [
        "0x000000000000000000000000000000000000000000000000000000000000000b",
        "0xB8a934dcb74d0E3d1DF6Bce0faC12cD8B18801eD"
      ],
      "transaction": {
        "from": "0x8db97c7cece249c2b98bdc0226cc4c2a57bf52fc",
        "to": "0xe336d36faca76840407e6836d26119e1ece0a2b4",
        "gas": "0x10248",
        "value": "0x0",
        "input": "0xcb0055dc000000000000000000000000000000000000000000000000000000000000000b000000000000000000000000b8a934dcb74d0e3d1df6bce0fac12cd8b18801ed",
        "nonce": "0x8",
        "chainId": "0x16"
      },
      "additionalContracts": [],
      "isFixedGasLimit": false
    }
  ],
  "receipts": [
    {
      "status": "0x1",
      "cumulativeGasUsed": "0xbaff",
      "logs": [
        {
          "address": "0xe336d36faca76840407e6836d26119e1ece0a2b4",
          "topics": [
            "0x5e2ee94e5fcc8d41ae826c007ad7c0469ad36ecc49b851c1c248eef3958b35b7",
            "0x000000000000000000000000000000000000000000000000000000000000000b",
            "0x000000000000000000000000b8a934dcb74d0e3d1df6bce0fac12cd8b18801ed"
          ],
          "data": "0x",
          "blockHash": "0x3d4fa03ff4fd6a8f7864241f5ba1d2f67fde3d1d3e73ec38f2bbe1bb176c92f4",
          "blockNumber": "0x12",
          "transactionHash": "0x7a9e4cc6424f0e8758fecdb30ac126e0f284fb49da8bc7f503f625b9170c9f6f",
          "transactionIndex": "0x0",
          "logIndex": "0x0",
          "removed": false
        }
      ],
      "logsBloom": "0x00000000000000000000084001000000400000000000000000000000000000000000000000000000000000040000000000000080000000000000000000000000000080000000000000000000000008000000000000000000000000000000000000000000000000000000000000000000000000000000000000000000000000000000000000000000000000000000000000000000000200000000000000000000000000000000000000000000000000000000000000000000000000000001000000000000000000000000000000000000002000000000000000000000000000000000000000000000000000000000000000000000000000040000000000000000",
      "type": "0x2",
      "transactionHash": "0x7a9e4cc6424f0e8758fecdb30ac126e0f284fb49da8bc7f503f625b9170c9f6f",
      "transactionIndex": "0x0",
      "blockHash": "0x3d4fa03ff4fd6a8f7864241f5ba1d2f67fde3d1d3e73ec38f2bbe1bb176c92f4",
      "blockNumber": "0x12",
      "gasUsed": "0xbaff",
      "effectiveGasPrice": "0x5d21dba01",
      "from": "0x8db97c7cece249c2b98bdc0226cc4c2a57bf52fc",
      "to": "0xe336d36faca76840407e6836d26119e1ece0a2b4",
      "contractAddress": null
    }
  ],
  "libraries": [],
  "pending": [],
  "returns": {},
  "timestamp": 1755666824,
  "chain": 22,
  "commit": "faf6542"
}