{
  "transactions": [
    {
      "hash": "0x27ab090b0051b00c9d4edf6203915ca87ce1896409990b2e56ef028416ab9eca",
      "transactionType": "CALL",
      "contractName": null,
      "contractAddress": "0xe3573540ab8a1c4c754fd958dc1db39bbe81b208",
      "function": "setRemoteMessenger(bytes32,address)",
      "arguments": [
        "0x1077a462fa8df36296ce4bd4446a2c8f621e4d7f3a30b1eff31003fdf1915896",
        "0x7B4982e1F7ee384F206417Fb851a1EB143c513F9"
      ],
      "transaction": {
        "from": "0x8db97c7cece249c2b98bdc0226cc4c2a57bf52fc",
        "to": "0xe3573540ab8a1c4c754fd958dc1db39bbe81b208",
        "gas": "0xfe4e",
        "value": "0x0",
        "input": "0x0d721f781077a462fa8df36296ce4bd4446a2c8f621e4d7f3a30b1eff31003fdf19158960000000000000000000000007b4982e1f7ee384f206417fb851a1eb143c513f9",
        "nonce": "0xd",
        "chainId": "0x138a"
      },
      "additionalContracts": [],
      "isFixedGasLimit": false
    },
    {
      "hash": "0xf64b850180ee1df083391966702ae45e170f8f807c2390e159457756b77f455f",
      "transactionType": "CALL",
      "contractName": null,
      "contractAddress": "0x8b3bc4270be2abbb25bc04717830bd1cc493a461",
      "function": "setRemoteTokenAddress(bytes32,address)",
      "arguments": [
        "0x1077a462fa8df36296ce4bd4446a2c8f621e4d7f3a30b1eff31003fdf1915896",
        "0x55a4eDd8A2c051079b426E9fbdEe285368824a89"
      ],
      "transaction": {
        "from": "0x8db97c7cece249c2b98bdc0226cc4c2a57bf52fc",
        "to": "0x8b3bc4270be2abbb25bc04717830bd1cc493a461",
        "gas": "0x10444",
        "value": "0x0",
        "input": "0xcb0055dc1077a462fa8df36296ce4bd4446a2c8f621e4d7f3a30b1eff31003fdf191589600000000000000000000000055a4edd8a2c051079b426e9fbdee285368824a89",
        "nonce": "0xe",
        "chainId": "0x138a"
      },
      "additionalContracts": [],
      "isFixedGasLimit": false
    }
  ],
  "receipts": [
    {
      "status": "0x1",
      "cumulativeGasUsed": "0xade3",
      "logs": [],
      "logsBloom": "0x00000000000000000000000000000000000000000000000000000000000000000000000000000000000000000000000000000000000000000000000000000000000000000000000000000000000000000000000000000000000000000000000000000000000000000000000000000000000000000000000000000000000000000000000000000000000000000000000000000000000000000000000000000000000000000000000000000000000000000000000000000000000000000000000000000000000000000000000000000000000000000000000000000000000000000000000000000000000000000000000000000000000000000000000000000000",
      "type": "0x2",
      "transactionHash": "0x27ab090b0051b00c9d4edf6203915ca87ce1896409990b2e56ef028416ab9eca",
      "transactionIndex": "0x0",
      "blockHash": "0xffc34f1a85f506a857eeea504683b205ddad117e69e1f3899536cc301ba6541e",
      "blockNumber": "0x11",
      "gasUsed": "0xade3",
      "effectiveGasPrice": "0x5d21dba01",
      "from": "0x8db97c7cece249c2b98bdc0226cc4c2a57bf52fc",
      "to": "0xe3573540ab8a1c4c754fd958dc1db39bbe81b208",
      "contractAddress": null
    },
    {
      "status": "0x1",
      "cumulativeGasUsed": "0x16a52",
      "logs": [
        {
          "address": "0x8b3bc4270be2abbb25bc04717830bd1cc493a461",
          "topics": [
            "0x5e2ee94e5fcc8d41ae826c007ad7c0469ad36ecc49b851c1c248eef3958b35b7",
            "0x1077a462fa8df36296ce4bd4446a2c8f621e4d7f3a30b1eff31003fdf1915896",
            "0x00000000000000000000000055a4edd8a2c051079b426e9fbdee285368824a89"
          ],
          "data": "0x",
          "blockHash": "0xffc34f1a85f506a857eeea504683b205ddad117e69e1f3899536cc301ba6541e",
          "blockNumber": "0x11",
          "transactionHash": "0xf64b850180ee1df083391966702ae45e170f8f807c2390e159457756b77f455f",
          "transactionIndex": "0x1",
          "logIndex": "0x0",
          "removed": false
        }
      ],
      "logsBloom": "0x00000000000800000000000001000000000000000000000000000000000001000000000000000002000000000000000000000000000000000000000000000000000000000000000000000000000008000000000000000000000000000000000000000000000000000000004000000000000000000000000000000000000000000000000000040000000000000000010000000000000200000000000000000000000000000000000000000010000000400000000000000000000000000000000000000000000000000000000000000000000000000000000000000000000000000000000000000200000000000000000000000000000000000000000000000000",
      "type": "0x2",
      "transactionHash": "0xf64b850180ee1df083391966702ae45e170f8f807c2390e159457756b77f455f",
      "transactionIndex": "0x1",
      "blockHash": "0xffc34f1a85f506a857eeea504683b205ddad117e69e1f3899536cc301ba6541e",
      "blockNumber": "0x11",
      "gasUsed": "0xbc6f",
      "effectiveGasPrice": "0x5d21dba01",
      "from": "0x8db97c7cece249c2b98bdc0226cc4c2a57bf52fc",
      "to": "0x8b3bc4270be2abbb25bc04717830bd1cc493a461",
      "contractAddress": null
    }
  ],
  "libraries": [],
  "pending": [],
  "returns": {},
  "timestamp": 1755509138,
  "chain": 5002,
  "commit": "faf6542"
}