{
  "transactions": [
    {
      "hash": "0x1e2fd1030802208c4f56f3988d3ad254606d7aa81f71fd878c451053f9196d37",
      "transactionType": "CALL",
      "contractName": null,
      "contractAddress": "0xa4cd3b0eb6e5ab5d8ce4065bccd70040adab1f00",
      "function": "setRemoteTokenAddress(bytes32)",
      "arguments": [
        "0x0000000000000000000000004ac1d98d9cef99ec6546ded4bd550b0b287aad6d"
      ],
      "transaction": {
        "from": "0x8db97c7cece249c2b98bdc0226cc4c2a57bf52fc",
        "to": "0xa4cd3b0eb6e5ab5d8ce4065bccd70040adab1f00",
        "gas": "0xec87",
        "value": "0x0",
        "input": "0x9ccca9b40000000000000000000000004ac1d98d9cef99ec6546ded4bd550b0b287aad6d",
        "nonce": "0x7",
        "chainId": "0x1869f"
      },
      "additionalContracts": [],
      "isFixedGasLimit": false
    }
  ],
  "receipts": [
    {
      "status": "0x1",
      "cumulativeGasUsed": "0xab3f",
      "logs": [],
      "logsBloom": "0x00000000000000000000000000000000000000000000000000000000000000000000000000000000000000000000000000000000000000000000000000000000000000000000000000000000000000000000000000000000000000000000000000000000000000000000000000000000000000000000000000000000000000000000000000000000000000000000000000000000000000000000000000000000000000000000000000000000000000000000000000000000000000000000000000000000000000000000000000000000000000000000000000000000000000000000000000000000000000000000000000000000000000000000000000000000",
      "type": "0x2",
      "transactionHash": "0x1e2fd1030802208c4f56f3988d3ad254606d7aa81f71fd878c451053f9196d37",
      "transactionIndex": "0x0",
      "blockHash": "0x4565888295c76fc8945115334e3ef1c7436f1334880af0a867749f68c64b766d",
      "blockNumber": "0xa",
      "gasUsed": "0xab3f",
      "effectiveGasPrice": "0x5d21dba01",
      "from": "0x8db97c7cece249c2b98bdc0226cc4c2a57bf52fc",
      "to": "0xa4cd3b0eb6e5ab5d8ce4065bccd70040adab1f00",
      "contractAddress": null
    }
  ],
  "libraries": [],
  "pending": [],
  "returns": {},
  "timestamp": 1755213011,
  "chain": 99999,
  "commit": "faf6542"
}